:100000000C9434000C9449000C9449000C94490061
:100010000C9449000C9449000C9449000C9449003C
:100020000C9449000C9449000C9449000C9449002C
:100030000C9449000C9449000C9449000C9449001C
:100040000C9449000C9449000C9400010C94490054
:100050000C9449000C9449000C9449000C944900FC
:100060000C9449000C94490011241FBECFEFD8E036
:10007000DEBFCDBF11E0A0E0B1E0E4EEF7E002C0EA
:1000800005900D92A831B107D9F70E944B000C944E
:10009000F0030C940000CF92DF92EF92FF920F9347
:1000A0001F93DF93CF93CDB7DEB727970FB6F894A2
:1000B000DEBF0FBECDBF0E948A020E94260180E0F3
:1000C00091E00E943D0181E061E00E9473010E9485
:1000D00091010E9467020E9407020E949002789498
:1000E00010E07E010894E11CF11C0AE080EDC82EAE
:1000F00087E0D82EC7010E94A8018FE091E00E94FE
:100100003D018F81282F22952F70209F900111246F
:100110008F70820F0E944E018E81282F22952F70A2
:10012000209F900111248F70820F0E944E0181E167
:1001300091E00E943D018D81282F22952F70209FF4
:10014000900111248F70820F0E944E0181E191E095
:100150000E943D018C81282F22952F70209F9001B5
:1001600011248F70820F0E944E0183E191E00E9462
:100170003D018B81282F22952F70209F9001112403
:100180008F70820F0E944E0185E191E00E943D0137
:100190008A81282F22952F70209F900111248F7023
:1001A000820F0E944E0185E191E00E943D0189810C
:1001B000282F22952F70209F900111248F70820F7D
:1001C0000E944E0183E191E00E943D01C701612F31
:1001D0000E9493024A998ECFC6010197F1F74A997E
:1001E00089CF1F5F143049F410E007C0C7010E9497
:1001F000A801C701612F0E9493024A997BCFF6CFD5
:100200001F920F920FB60F9211242F933F934F938B
:100210005F936F937F938F939F93AF93BF93EF936E
:10022000FF930E9437010E943A01FF91EF91BF9125
:10023000AF919F918F917F916F915F914F913F917E
:100240002F910F900FBE0F901F9018951092C50020
:1002500083E38093C400E0ECF0E080818D7F8083B5
:1002600088E98093C10086E08093C2000895809160
:10027000C60008958093C6000895AC0120E007C031
:100280008091C00085FFFCCFE093C6002F5FFA018C
:10029000E20FF11DE081EE2399F70895282F809158
:1002A000C00085FFFCCF822F64E60E94E403805DDE
:1002B0008093C6008091C00085FFFCCF822F6AE04A
:1002C0000E94E4030E94E403905D9093C600809135
:1002D000C00085FFFCCF822F6AE00E94E403905D9E
:1002E0009093C6000895239A2C9A259A229A9CB539
:1002F00092609CBD9CB590619CBD9CB590649CBD7A
:100300009CB5880F880F880F982B9CBD8CB5660F05
:10031000660F862B8CBD08958EBD0DB407FEFDCFF4
:100320000895229A2A9A08951F93162F2A980E94B8
:100330008C01812F0E948C012A9A1F9108952A987E
:100340000E948C0180E00E948C012A9A8EB508954B
:10035000CF93DF93EC0180E00E949F01888381E0CE
:100360000E949F01898382E00E949F018F738A838C
:1003700084E00E949F018B8385E00E949F018F7122
:100380008C8386E00E949F018D8385E00E949F01FF
:1003900087FF02C080E201C089E18E83DF91CF91A7
:1003A00008951F9318E02998812F0E948C018FE0F7
:1003B0000E948C01812F0E948C018FE00E948C0191
:1003C000299A115081F71F9108950F931F93182FA9
:1003D000062F87FF0BC029980E948C01802F0E9456
:1003E0008C0180E00E948C0180E00BC0299880E0A5
:1003F0000E948C0180E00E948C01812F0E948C0160
:10040000802F0E948C01299A1F910F9108950F93BC
:100410001F93CF93DF930E94D10103E0C8ECD0E09B
:1004200018E8812F6FE80E94E50184EF91E0FE015A
:100430003197F1F70197D9F7812F6FE00E94E5011D
:100440001150103871F718E0812F6FE80E94E50114
:1004500084EF91E0FE013197F1F70197D9F7812FF1
:100460006FE00E94E501115079F70150C9F684E868
:1004700061E00E94E50183E865E00E94E50182E811
:1004800060E00E94E50181E86AE00E94E50188E001
:1004900068E00E94E50187E066E00E94E50186E0F1
:1004A00060E00E94E50185E061E00E94E50180E2F4
:1004B0009EE428EC30E0F9013197F1F70197D9F784
:1004C0000E94D101DF91CF911F910F910895219A40
:1004D000299A8BE067E00E94E5018AE068E00E94CB
:1004E000E5018CE061E00E94E50189E06FEF0E9488
:1004F000E5018BE867E00E94E5018AE868E00E9478
:10050000E5018CE861E00E94E50189E86FEF0E9457
:10051000E5010895E1E6F0E080E880831082089527
:1005200052985A9A0895CF93DF93EC01613009F401
:100530004DC0613038F0623009F4A1C0633009F079
:1005400040C1E5C088E86FE00E94E5016E816295D8
:100550006F7087E80E94E5016E816F7086E80E94E7
:10056000E5016D8162956F7085E80E94E5016D81FE
:100570006F7084E80E94E5016C8162956F7083E87A
:100580000E94E5016C816F7082E80E94E5016B8139
:1005900062956F7081E80E94E5016B816F7088E061
:1005A0000E94E5016A8162956F7087E00E94E50113
:1005B0006A816F7086E00E94E501698162956F70C3
:1005C00085E00E94E50169816F7048C088E86FE0AE
:1005D0000E94E5016E8162956F7087E80E94E501D7
:1005E0006E816F7086E80E94E5016D8162956F7083
:1005F00085E80E94E5016D816F70606884E80E9463
:10060000E5016C8162956F7083E80E94E5016C8161
:100610006F70606882E80E94E5016B8162956F707F
:1006200081E80E94E5016B816F70606888E00E943C
:10063000E5016A8162956F7087E00E94E5016A8139
:100640006F70606886E00E94E501698162956F7055
:1006500085E00E94E50169816F70606884E00E9416
:10066000E501688162956F7083E00E94E501688111
:100670006F7082E00E94E50181E06FE0A0C06E81B2
:1006800062956F7088E80E94E5016E816F7087E85F
:100690000E94E5016D8162956F7086E80E94E50118
:1006A0006D816F7085E80E94E5016C8162956F70C5
:1006B00084E80E94E5016C816F7083E80E94E50187
:1006C0006B8162956F7082E80E94E5016B816F70AB
:1006D00081E80E94E50188E06FE00E94E50187E083
:1006E0006FE00E94E5016A8162956F7086E00E946A
:1006F000E5016A816F7085E00E94E501698162957C
:100700006F7084E00E94E50169816F704CC06E815A
:1007100062956F7088E80E94E5016E816F7087E8CE
:100720000E94E5016D8162956F7086E80E94E50187
:100730006D816F70606885E80E94E5016C8162954B
:100740006F7084E80E94E5016C816F70606883E8D7
:100750000E94E5016B8162956F7082E80E94E5015D
:100760006B816F70606881E80E94E50188E06FE04E
:100770000E94E50187E06FE00E94E5016A816295D1
:100780006F7086E00E94E5016A816F70606885E0A5
:100790000E94E501698162956F7084E00E94E50125
:1007A00069816F70606883E00E94E50168816295ED
:1007B0006F7082E00E94E50168816F7081E00E94A5
:1007C000E501DF91CF910895991B79E004C0991F4D
:1007D000961708F0961B881F7A95C9F7809508959B
:0407E000F894FFCFBB
:1007E4000D0A0A0A49534F20383630310D0A000DDC
:0807F400002D0020003A000076
:00000001FF
