:100000000C9434000C9449000C9449000C94490061
:100010000C9449000C9449000C9449000C9449003C
:100020000C9449000C9449000C9449000C9449002C
:100030000C9449000C9449000C9449000C9449001C
:100040000C9449000C9449000C9433010C94490021
:100050000C9449000C9449000C9449000C944900FC
:100060000C9449000C94490011241FBECFEFD8E036
:10007000DEBFCDBF11E0A0E0B1E0EAE4F5E002C0F0
:1000800005900D92A831B107D9F70E944B000C944E
:10009000A3020C940000EF92FF921F93DF93CF9383
:1000A000CDB7DEB729970FB6F894DEBF0FBECDBF30
:1000B00080E880936100109261000E94590180E005
:1000C00091E00E94700181E061E00E949B010E942A
:1000D000B9010E9474020E943F020E9409027E013F
:1000E0000894E11CF11C1AE0C7010E94D0018FE0C6
:1000F00091E00E9470018985282F22952F70219F01
:10010000900111248F70820F0E9481018885282F11
:1001100022952F70219F900111248F70820F0E94D1
:10012000810181E191E00E9470018F81282F229549
:100130002F70219F900111248F70820F0E948101E6
:1001400081E191E00E9470018E81282F22952F700D
:10015000219F900111248F70820F0E94810183E101
:1001600091E00E9470018B81282F22952F70219F92
:10017000900111248F70820F0E94810185E191E02E
:100180000E9470018A81282F22952F70219F900153
:1001900011248F70820F0E94810185E191E00E94FD
:1001A00070018981282F22952F70219F90011124A1
:1001B0008F70820F0E94810183E191E00E947001A3
:1001C000698562956F7087E80E941D0269856F706E
:1001D00086E80E941D02688562956F7085E80E941E
:1001E0001D0268856F70606884E80E941D026F813F
:1001F00062956F7083E80E941D026F816F70606866
:1002000082E80E941D026E8162956F7081E80E94F3
:100210001D026E816F70606888E00E941D026B8114
:1002200062956F7087E00E941D026B816F7060683D
:1002300086E00E941D026A8162956F7085E00E94CF
:100240001D026A816F70606884E00E941D026981EE
:1002500062956F7083E00E941D0269816F7082E079
:100260000E941D0241CF1F920F920FB60F921124D0
:100270002F933F934F935F936F937F938F939F93AE
:10028000AF93BF93EF93FF930E946A010E946D01A9
:10029000FF91EF91BF91AF919F918F917F916F915E
:1002A0005F914F913F912F910F900FBE0F901F9034
:1002B00018951092C50083E38093C400E0ECF0E051
:1002C00080818D7F808388E98093C10086E0809360
:1002D000C20008958091C60008958093C6000895D5
:1002E000AC0120E007C08091C00085FFFCCFE09307
:1002F000C6002F5FFA01E20FF11DE081EE2399F7AE
:100300000895282F8091C00085FFFCCF822F6AE0DE
:100310000E9497020E949702905D9093C600809180
:10032000C00085FFFCCF822F6AE00E949702905D9B
:100330009093C6000895239A2C9A259A229A9CB5E8
:1003400092609CBD9CB590619CBD9CB590649CBD29
:100350009CB5880F880F880F982B9CBD8CB5660FB5
:10036000660F862B8CBD08958EBD0DB407FEFDCFA4
:100370000895229A2A9A08951F93162F2A980E9468
:10038000B401812F0E94B4012A9A1F9108952A98DE
:100390000E94B40180E00E94B4012A9A8EB50895AB
:1003A000CF93DF93EC0180E00E94C701888381E056
:1003B0000E94C701898382E00E94C7018F738A83EC
:1003C00082E00E94C70190E08074907026E09595CD
:1003D00087952A95E1F78B8383E00E94C7018C8380
:1003E00084E00E94C7018D8385E00E94C7018F7160
:1003F0008E8386E00E94C7018F8385E00E94C7013B
:1004000087FF02C080E201C089E18887DF91CF9138
:1004100008951F9318E02998812F0E94B4018FE05E
:100420000E94B401812F0E94B4018FE00E94B401A8
:10043000299A115081F71F9108950F931F93182F38
:10044000062F87FF0BC029980E94B401802F0E94BD
:10045000B40180E00E94B40180E00BC0299880E0E4
:100460000E94B40180E00E94B401812F0E94B40177
:10047000802F0E94B401299A1F910F9108950F9324
:100480001F93CF93DF930E94090203E0C8ECD0E0F2
:1004900018E8812F6FE80E941D0284EF91E0FE01B1
:1004A0003197F1F70197D9F7812F6FE00E941D0274
:1004B0001150103871F718E0812F6FE80E941D026B
:1004C00084EF91E0FE013197F1F70197D9F7812F81
:1004D0006FE00E941D02115079F70150C9F6DF91BB
:1004E000CF911F910F910895219A299A8BE067E08F
:1004F0000E941D028AE068E00E941D028CE061E01B
:100500000E941D0289E06FEF0E941D028BE867E0E8
:100510000E941D028AE868E00E941D028CE861E0EA
:100520000E941D0289E86FEF0E941D020895991B29
:1005300079E004C0991F961708F0961B881F7A95DA
:0A054000C9F780950895F894FFCFE5
:10054A000D0A0A0A49534F20383630310D0A000D78
:08055A00002D0020003A000012
:00000001FF
