:100000000C9434000C9451000C9451000C94510049
:100010000C9451000C9451000C9451000C9451001C
:100020000C9451000C9451000C9451000C9451000C
:100030000C9451000C9451000C9451000C945100FC
:100040000C9451000C9451000C9491010C945100AB
:100050000C9451000C9451000C9451000C945100DC
:100060000C9451000C94510011241FBECFEFD8E026
:10007000DEBFCDBF11E0A0E0B1E0EEE4F6E002C0EB
:1000800005900D92A831B107D9F711E0A8E1B1E0D0
:1000900001C01D92A032B107E1F70E94D6000C9476
:1000A00025030C940000EF92FF920F931F938FE1B2
:1000B000E82E81E0F82E60911F0162956F7087E84D
:1000C0000E94760260911F016F7086E80E9476029E
:1000D000F70162918F0162956F7085E80E94760248
:1000E000F80160816F70606884E80E947602870181
:1000F00002501040F801608162956F7083E80E94A1
:100100007602F80160816F70606882E80E94760272
:10011000870103501040F801608162956F7081E89B
:100120000E947602F80160816F70606888E00E942A
:100130007602870104501040F801608162956F706B
:1001400087E00E947602F80160816F70606886E047
:100150000E947602870105501040F8016081629587
:100160006F7085E00E947602F80160816F706068B0
:1001700084E00E9476028AEF9FEFE80EF91EF701F5
:10018000608162956F7083E00E947602F701608162
:100190006F7082E00E9476026091180181E00E94F7
:1001A00076021F910F91FF90EF9008951F93CF93C8
:1001B000DF9380E880936100109261000E94B70194
:1001C00080E091E00E94CE0181E061E00E940402A3
:1001D0000E9422020E94F6020E9498020E9462027D
:1001E00052985A9A78941AE0C0E2DEE489E191E0EC
:1001F0000E9439028FE091E00E94CE0180911F01A0
:1002000020911F0122952F70219F900111248F7042
:10021000820F0E94DF0180911E0120911E01229514
:100220002F70219F900111248F70820F0E94DF0197
:1002300081E191E00E94CE0180911D0120911D017C
:1002400022952F70219F900111248F70820F0E94A0
:10025000DF0181E191E00E94CE0180911C0120919B
:100260001C0122952F70219F900111248F70820F05
:100270000E94DF0183E191E00E94CE0180911B0189
:1002800020911B0122952F70219F900111248F70C6
:10029000820F0E94DF0185E191E00E94CE018091F2
:1002A0001A0120911A0122952F70219F900111248B
:1002B0008F70820F0E94DF0185E191E00E94CE01E4
:1002C000809119012091190122952F70219F900191
:1002D00011248F70820F0E94DF0183E191E00E9460
:1002E000CE01809118010E94DF0183E191E00E941C
:1002F000CE010E9453004A9979CFCE010197F1F7C0
:100300004A9974CF809118018F5F8093180106C0BD
:1003100089E191E00E9439020E9453004A9966CF18
:10032000F7CF1F920F920FB60F9211242F933F9386
:100330004F935F936F937F938F939F93AF93BF93ED
:10034000EF93FF930E94C8010E94CB01FF91EF91B0
:10035000BF91AF919F918F917F916F915F914F91DD
:100360003F912F910F900FBE0F901F9018951092F4
:10037000C50083E38093C400E0ECF0E080818D7FD2
:10038000808388E98093C10086E08093C20008954D
:100390008091C60008958093C6000895AC0120E0C6
:1003A00007C08091C00085FFFCCFE093C6002F5F9F
:1003B000FA01E20FF11DE081EE2399F70895282F4D
:1003C0008091C00085FFFCCF822F64E60E94190354
:1003D000805D8093C6008091C00085FFFCCF822F96
:1003E0006AE00E9419030E941903905D9093C60071
:1003F0008091C00085FFFCCF822F6AE00E94190324
:10040000905D9093C6000895239A2C9A259A229A7B
:100410009CB592609CBD9CB590619CBD9CB5906460
:100420009CBD9CB5880F880F880F982B9CBD8CB500
:10043000660F660F862B8CBD08958EBD0DB407FE2A
:10044000FDCF0895229A2A9A08951F93162F2A986D
:100450000E941D02812F0E941D022A9A1F91089559
:100460002A980E941D0280E00E941D022A9A8EB5E1
:100470000895CF93DF93EC0180E00E9430028883DF
:1004800081E00E943002898382E00E9430028F73F3
:100490008A8384E00E9430028B8385E00E943002D0
:1004A0008F718C8386E00E9430028D8385E00E94EC
:1004B000300287FF02C080E201C089E18E83DF91B4
:1004C000CF9108951F9318E02998812F0E941D0253
:1004D0008FE00E941D02812F0E941D028FE00E946A
:1004E0001D02299A115081F71F9108950F931F93B0
:1004F000182F062F87FF0BC029980E941D02802FFE
:100500000E941D0280E00E941D0280E00BC029981D
:1005100080E00E941D0280E00E941D02812F0E9447
:100520001D02802F0E941D02299A1F910F9108958C
:100530000F931F93CF93DF930E94620203E0C8ECF6
:10054000D0E018E8812F6FE80E94760284EF91E0F6
:10055000FE013197F1F70197D9F7812F6FE00E94E3
:1005600076021150103871F718E0812F6FE80E9461
:10057000760284EF91E0FE013197F1F70197D9F708
:10058000812F6FE00E947602115079F70150C9F671
:1005900084E861E00E94760283E865E00E947602CA
:1005A00082E860E00E94760281E86AE00E947602BA
:1005B00088E068E00E94760287E066E00E947602AA
:1005C00086E060E00E94760285E061E00E947602AB
:1005D00080E29EE428EC30E0F9013197F1F70197D1
:1005E000D9F7DF91CF911F910F910895219A299A00
:1005F0008BE067E00E9476028AE068E00E94760263
:100600008CE061E00E94760289E06FEF0E94760242
:100610008BE867E00E9476028AE868E00E94760232
:100620008CE861E00E94760289E86FEF0E94760212
:100630000895991B79E004C0991F961708F0961B3E
:0E064000881F7A95C9F780950895F894FFCF2A
:10064E000D0A0A0A49534F20383630310D0A000D73
:08065E00002D0020003A00000D
:00000001FF
