:100000000C9434000C9449000C9449000C94490061
:100010000C9449000C9449000C9449000C9449003C
:100020000C9449000C9449000C9449000C9449002C
:100030000C9449000C9449000C9449000C9449001C
:100040000C9449000C9449000C94E5000C94490070
:100050000C9449000C9449000C9449000C944900FC
:100060000C9449000C94490011241FBECFEFD8E036
:10007000DEBFCDBF11E0A0E0B1E0E0E8F4E002C0F7
:1000800005900D92AA31B107D9F70E944B000C944C
:100090003E020C940000CF92DF92EF92FF921F93EA
:1000A000DF93CF93CDB7DEB729970FB6F894DEBFB5
:1000B0000FBECDBF0E940B0180E091E00E942201A3
:1000C00081E061E00E944D010E946B0180E865E5DE
:1000D0000E946E0181E869E50E946E0182E862E19A
:1000E0000E946E010E941F020E94E1010E94D7013E
:1000F0006E010894C11CD11C1AE084EDE82E80E347
:10010000F82EC6010E94820184E191E00E94220142
:100110008B81282F22952F70219F900111248F70A1
:10012000820F0E94330186E191E00E9422018A81C0
:10013000282F22952F70219F900111248F70820FFC
:100140000E94330186E191E00E9422018981282FDB
:1001500022952F70219F900111248F70820F0E9491
:10016000330188E191E00E9422016D8162956F70F8
:1001700088E00E94C2016D816F7087E00E94C20119
:100180006B8162956F7086E00E94C2016B816F7017
:1001900085E00E94C2016A8162956F7084E00E94CE
:1001A000C2016A816F7083E00E94C2016981629519
:1001B0006F7082E00E94C20169816F7081E00E94CD
:1001C000C201C7010197F1F79CCF1F920F920FB6A2
:1001D0000F9211242F933F934F935F936F937F93CD
:1001E0008F939F93AF93BF93EF93FF930E941C0154
:1001F0000E941F01FF91EF91BF91AF919F918F914D
:100200007F916F915F914F913F912F910F900FBE12
:100210000F901F9018951092C5008CE08093C40039
:10022000E0ECF0E080818260808388E98093C10007
:1002300086E08093C20008958091C600089580935F
:10024000C6000895AC0120E007C08091C00085FF82
:10025000FCCFE093C6002F5FFA01E20FF11DE081B1
:10026000EE2399F70895282F8091C00085FFFCCFD9
:10027000822F6AE00E9432020E943202905D9093C7
:10028000C6008091C00085FFFCCF822F6AE00E94EB
:100290003202905D9093C6000895239A2C9A259A75
:1002A000229A9CB592609CBD9CB590619CBD9CB50A
:1002B00090649CBD9CB5880F880F880F982B9CBDBF
:1002C0008CB5660F660F862B8CBD08958EBD0DB460
:1002D00007FEFDCF0895229A2A9A08951F93162F9C
:1002E0002A980E946601812F0E9466012A9A1F9116
:1002F00008952A980E94660180E00E9466012A9A69
:100300008EB508950F931F938C0180E00E947901B0
:10031000F801808381E00E947901F801818382E005
:100320000E9479018F73F801828382E00E94790133
:1003300090E08074907026E0959587952A95E1F776
:10034000F801838383E00E947901F801848384E0CB
:100350000E947901F801858385E00E9479018F71FF
:10036000F801868386E00E947901F801878385E0A1
:100370000E947901881F8827881FF80180871F91B4
:100380000F9108950F931F93182F062F299880E03F
:100390000E94660180E00E946601812F0E94660132
:1003A000802F0E946601299A1F910F9108951F9333
:1003B00018E0812F6FE00E94C2011150D1F71F9108
:1003C0000895EF92FF920F931F93CF93DF930E94B4
:1003D000D70103E084EDE82E80E3F82EC4EDD0E3EE
:1003E00025C0812F6FE80E94C201C7010197F1F774
:1003F000812F6FE00E94C201115099F782E06FE8EF
:100400000E94C201CE010197F1F782E06FE00E94E5
:10041000C20183E06FE80E94C201CE010197F1F7AB
:1004200083E06FE00E94C201015011F014E0D9CFC7
:10043000DF91CF911F910F91FF90EF900895219A36
:10044000299A8BE067E00E94C2018AE068E00E947E
:10045000C2018CE061E00E94C20189E06FEF0E945E
:10046000C2010895991B79E004C0991F961708F0FE
:10047000961B881F7A95C9F780950895F894FFCF49
:100480000D0A47616D65206F766572206D616E2E75
:0A0490000D0A0A000D003A002000DA
:00000001FF
